{
  "_format": "hh-sol-artifact-1",
  "contractName": "CriminalEvidence",
  "sourceName": "contracts/CriminalEvidence.sol",
  "abi": [
    {
      "inputs": [],
      "stateMutability": "nonpayable",
      "type": "constructor"
    },
    {
      "anonymous": false,
      "inputs": [
        {
          "indexed": true,
          "internalType": "uint256",
          "name": "id",
          "type": "uint256"
        },
        {
          "indexed": false,
          "internalType": "bool",
          "name": "approved",
          "type": "bool"
        },
        {
          "indexed": true,
          "internalType": "address",
          "name": "reviewedBy",
          "type": "address"
        }
      ],
      "name": "EvidenceReviewed",
      "type": "event"
    },
    {
      "anonymous": false,
      "inputs": [
        {
          "indexed": true,
          "internalType": "uint256",
          "name": "id",
          "type": "uint256"
        },
        {
          "indexed": false,
          "internalType": "string",
          "name": "caseId",
          "type": "string"
        },
        {
          "indexed": true,
          "internalType": "address",
          "name": "submittedBy",
          "type": "address"
        }
      ],
      "name": "EvidenceSubmitted",
      "type": "event"
    },
    {
      "anonymous": false,
      "inputs": [
        {
          "indexed": true,
          "internalType": "address",
          "name": "user",
          "type": "address"
        }
      ],
      "name": "InvestigatorAdded",
      "type": "event"
    },
    {
      "anonymous": false,
      "inputs": [
        {
          "indexed": true,
          "internalType": "address",
          "name": "user",
          "type": "address"
        }
      ],
      "name": "ReviewerAdded",
      "type": "event"
    },
    {
      "inputs": [
        {
          "internalType": "address",
          "name": "user",
          "type": "address"
        }
      ],
      "name": "addInvestigator",
      "outputs": [],
      "stateMutability": "nonpayable",
      "type": "function"
    },
    {
      "inputs": [
        {
          "internalType": "address",
          "name": "user",
          "type": "address"
        }
      ],
      "name": "addReviewer",
      "outputs": [],
      "stateMutability": "nonpayable",
      "type": "function"
    },
    {
      "inputs": [],
      "name": "admin",
      "outputs": [
        {
          "internalType": "address",
          "name": "",
          "type": "address"
        }
      ],
      "stateMutability": "view",
      "type": "function"
    },
    {
      "inputs": [],
      "name": "evidenceCount",
      "outputs": [
        {
          "internalType": "uint256",
          "name": "",
          "type": "uint256"
        }
      ],
      "stateMutability": "view",
      "type": "function"
    },
    {
      "inputs": [
        {
          "internalType": "uint256",
          "name": "",
          "type": "uint256"
        }
      ],
      "name": "evidences",
      "outputs": [
        {
          "internalType": "uint256",
          "name": "id",
          "type": "uint256"
        },
        {
          "internalType": "string",
          "name": "caseId",
          "type": "string"
        },
        {
          "internalType": "string",
          "name": "description",
          "type": "string"
        },
        {
          "internalType": "string",
          "name": "documentHash",
          "type": "string"
        },
        {
          "internalType": "address",
          "name": "submittedBy",
          "type": "address"
        },
        {
          "internalType": "uint256",
          "name": "submittedAt",
          "type": "uint256"
        },
        {
          "internalType": "bool",
          "name": "approved",
          "type": "bool"
        },
        {
          "internalType": "address",
          "name": "reviewedBy",
          "type": "address"
        },
        {
          "internalType": "bool",
          "name": "active",
          "type": "bool"
        }
      ],
      "stateMutability": "view",
      "type": "function"
    },
    {
      "inputs": [
        {
          "internalType": "uint256",
          "name": "id",
          "type": "uint256"
        }
      ],
      "name": "getEvidence",
      "outputs": [
        {
          "components": [
            {
              "internalType": "uint256",
              "name": "id",
              "type": "uint256"
            },
            {
              "internalType": "string",
              "name": "caseId",
              "type": "string"
            },
            {
              "internalType": "string",
              "name": "description",
              "type": "string"
            },
            {
              "internalType": "string",
              "name": "documentHash",
              "type": "string"
            },
            {
              "internalType": "address",
              "name": "submittedBy",
              "type": "address"
            },
            {
              "internalType": "uint256",
              "name": "submittedAt",
              "type": "uint256"
            },
            {
              "internalType": "bool",
              "name": "approved",
              "type": "bool"
            },
            {
              "internalType": "address",
              "name": "reviewedBy",
              "type": "address"
            },
            {
              "internalType": "bool",
              "name": "active",
              "type": "bool"
            }
          ],
          "internalType": "struct CriminalEvidence.Evidence",
          "name": "",
          "type": "tuple"
        }
      ],
      "stateMutability": "view",
      "type": "function"
    },
    {
      "inputs": [
        {
          "internalType": "address",
          "name": "",
          "type": "address"
        }
      ],
      "name": "investigators",
      "outputs": [
        {
          "internalType": "bool",
          "name": "",
          "type": "bool"
        }
      ],
      "stateMutability": "view",
      "type": "function"
    },
    {
      "inputs": [
        {
          "internalType": "uint256",
          "name": "id",
          "type": "uint256"
        },
        {
          "internalType": "bool",
          "name": "approved",
          "type": "bool"
        }
      ],
      "name": "reviewEvidence",
      "outputs": [],
      "stateMutability": "nonpayable",
      "type": "function"
    },
    {
      "inputs": [
        {
          "internalType": "address",
          "name": "",
          "type": "address"
        }
      ],
      "name": "reviewers",
      "outputs": [
        {
          "internalType": "bool",
          "name": "",
          "type": "bool"
        }
      ],
      "stateMutability": "view",
      "type": "function"
    },
    {
      "inputs": [
        {
          "internalType": "string",
          "name": "caseId",
          "type": "string"
        },
        {
          "internalType": "string",
          "name": "description",
          "type": "string"
        },
        {
          "internalType": "string",
          "name": "documentHash",
          "type": "string"
        }
      ],
      "name": "submitEvidence",
      "outputs": [],
      "stateMutability": "nonpayable",
      "type": "function"
    }
  ],
  "bytecode": "0x608060405234801561001057600080fd5b50336000806101000a81548173ffffffffffffffffffffffffffffffffffffffff021916908373ffffffffffffffffffffffffffffffffffffffff1602179055506001600360003373ffffffffffffffffffffffffffffffffffffffff1673ffffffffffffffffffffffffffffffffffffffff16815260200190815260200160002060006101000a81548160ff0219169083151502179055506001600460003373ffffffffffffffffffffffffffffffffffffffff1673ffffffffffffffffffffffffffffffffffffffff16815260200190815260200160002060006101000a81548160ff021916908315150217905550611aef806101106000396000f3fe608060405234801561001057600080fd5b506004361061009e5760003560e01c8063a460c04011610066578063a460c04014610161578063c956f1431461017d578063e5078ed7146101ad578063f7cbb1b2146101c9578063f851a440146101f95761009e565b80632e4546cd146100a357806373a82b5f146100db5780637da5f6a6146100f75780638c9f014414610127578063a2ed5af014610143575b600080fd5b6100bd60048036038101906100b89190610fd4565b610217565b6040516100d2999897969594939291906110fc565b60405180910390f35b6100f560048036038101906100f091906111ca565b610457565b005b610111600480360381019061010c91906111ca565b610583565b60405161011e91906111f7565b60405180910390f35b610141600480360381019061013c919061123e565b6105a3565b005b61014b61074a565b604051610158919061127e565b60405180910390f35b61017b600480360381019061017691906112fe565b610750565b005b61019760048036038101906101929190610fd4565b610ace565b6040516101a491906114fc565b60405180910390f35b6101c760048036038101906101c291906111ca565b610da8565b005b6101e360048036038101906101de91906111ca565b610ed4565b6040516101f091906111f7565b60405180910390f35b610201610ef4565b60405161020e919061151e565b60405180910390f35b600260205280600052604060002060009150905080600001549080600101805461024090611568565b80601f016020809104026020016040519081016040528092919081815260200182805461026c90611568565b80156102b95780601f1061028e576101008083540402835291602001916102b9565b820191906000526020600020905b81548152906001019060200180831161029c57829003601f168201915b5050505050908060020180546102ce90611568565b80601f01602080910402602001604051908101604052809291908181526020018280546102fa90611568565b80156103475780601f1061031c57610100808354040283529160200191610347565b820191906000526020600020905b81548152906001019060200180831161032a57829003601f168201915b50505050509080600301805461035c90611568565b80601f016020809104026020016040519081016040528092919081815260200182805461038890611568565b80156103d55780601f106103aa576101008083540402835291602001916103d5565b820191906000526020600020905b8154815290600101906020018083116103b857829003601f168201915b5050505050908060040160009054906101000a900473ffffffffffffffffffffffffffffffffffffffff16908060050154908060060160009054906101000a900460ff16908060060160019054906101000a900473ffffffffffffffffffffffffffffffffffffffff16908060060160159054906101000a900460ff16905089565b60008054906101000a900473ffffffffffffffffffffffffffffffffffffffff1673ffffffffffffffffffffffffffffffffffffffff163373ffffffffffffffffffffffffffffffffffffffff16146104e5576040517f08c379a00000000000000000000000000000000000000000000000000000000081526004016104dc906115e5565b60405180910390fd5b6001600460008373ffffffffffffffffffffffffffffffffffffffff1673ffffffffffffffffffffffffffffffffffffffff16815260200190815260200160002060006101000a81548160ff0219169083151502179055508073ffffffffffffffffffffffffffffffffffffffff167fa78fc22d4599bb0c6086d2af06bc1158a45e81f81994d0734c428ab181c1463f60405160405180910390a250565b60036020528060005260406000206000915054906101000a900460ff1681565b600460003373ffffffffffffffffffffffffffffffffffffffff1673ffffffffffffffffffffffffffffffffffffffff16815260200190815260200160002060009054906101000a900460ff1661062f576040517f08c379a000000000000000000000000000000000000000000000000000000000815260040161062690611651565b60405180910390fd5b60006002600084815260200190815260200160002090508060060160159054906101000a900460ff16610697576040517f08c379a000000000000000000000000000000000000000000000000000000000815260040161068e906116bd565b60405180910390fd5b818160060160006101000a81548160ff021916908315150217905550338160060160016101000a81548173ffffffffffffffffffffffffffffffffffffffff021916908373ffffffffffffffffffffffffffffffffffffffff1602179055503373ffffffffffffffffffffffffffffffffffffffff16837f5ef711944f5edb31dd5cd8f59ae5f519045015ff7d91e04fb95f6e3569c85bb98460405161073d91906111f7565b60405180910390a3505050565b60015481565b600360003373ffffffffffffffffffffffffffffffffffffffff1673ffffffffffffffffffffffffffffffffffffffff16815260200190815260200160002060009054906101000a900460ff166107dc576040517f08c379a00000000000000000000000000000000000000000000000000000000081526004016107d390611729565b60405180910390fd5b60018060008282546107ee9190611778565b92505081905550604051806101200160405280600154815260200187878080601f016020809104026020016040519081016040528093929190818152602001838380828437600081840152601f19601f82011690508083019250505050505050815260200185858080601f016020809104026020016040519081016040528093929190818152602001838380828437600081840152601f19601f82011690508083019250505050505050815260200183838080601f016020809104026020016040519081016040528093929190818152602001838380828437600081840152601f19601f8201169050808301925050505050505081526020013373ffffffffffffffffffffffffffffffffffffffff168152602001428152602001600015158152602001600073ffffffffffffffffffffffffffffffffffffffff1681526020016001151581525060026000600154815260200190815260200160002060008201518160000155602082015181600101908161096a9190611987565b5060408201518160020190816109809190611987565b5060608201518160030190816109969190611987565b5060808201518160040160006101000a81548173ffffffffffffffffffffffffffffffffffffffff021916908373ffffffffffffffffffffffffffffffffffffffff16021790555060a0820151816005015560c08201518160060160006101000a81548160ff02191690831515021790555060e08201518160060160016101000a81548173ffffffffffffffffffffffffffffffffffffffff021916908373ffffffffffffffffffffffffffffffffffffffff1602179055506101008201518160060160156101000a81548160ff0219169083151502179055509050503373ffffffffffffffffffffffffffffffffffffffff166001547f0f09ca754f2bdf89270258d92a6f97b45baac6cdee52dd029f015cdce2c3eabc8888604051610abe929190611a95565b60405180910390a3505050505050565b610ad6610f18565b600260008381526020019081526020016000206040518061012001604052908160008201548152602001600182018054610b0f90611568565b80601f0160208091040260200160405190810160405280929190818152602001828054610b3b90611568565b8015610b885780601f10610b5d57610100808354040283529160200191610b88565b820191906000526020600020905b815481529060010190602001808311610b6b57829003601f168201915b50505050508152602001600282018054610ba190611568565b80601f0160208091040260200160405190810160405280929190818152602001828054610bcd90611568565b8015610c1a5780601f10610bef57610100808354040283529160200191610c1a565b820191906000526020600020905b815481529060010190602001808311610bfd57829003601f168201915b50505050508152602001600382018054610c3390611568565b80601f0160208091040260200160405190810160405280929190818152602001828054610c5f90611568565b8015610cac5780601f10610c8157610100808354040283529160200191610cac565b820191906000526020600020905b815481529060010190602001808311610c8f57829003601f168201915b505050505081526020016004820160009054906101000a900473ffffffffffffffffffffffffffffffffffffffff1673ffffffffffffffffffffffffffffffffffffffff1673ffffffffffffffffffffffffffffffffffffffff168152602001600582015481526020016006820160009054906101000a900460ff161515151581526020016006820160019054906101000a900473ffffffffffffffffffffffffffffffffffffffff1673ffffffffffffffffffffffffffffffffffffffff1673ffffffffffffffffffffffffffffffffffffffff1681526020016006820160159054906101000a900460ff1615151515815250509050919050565b60008054906101000a900473ffffffffffffffffffffffffffffffffffffffff1673ffffffffffffffffffffffffffffffffffffffff163373ffffffffffffffffffffffffffffffffffffffff1614610e36576040517f08c379a0000000000000000000000000000000000000000000000000000000008152600401610e2d906115e5565b60405180910390fd5b6001600360008373ffffffffffffffffffffffffffffffffffffffff1673ffffffffffffffffffffffffffffffffffffffff16815260200190815260200160002060006101000a81548160ff0219169083151502179055508073ffffffffffffffffffffffffffffffffffffffff167f9b401e423fa8d3194b83fa5c9a9ddc45e0ae9d32daddd773ae631cc29b7be0ff60405160405180910390a250565b60046020528060005260406000206000915054906101000a900460ff1681565b60008054906101000a900473ffffffffffffffffffffffffffffffffffffffff1681565b60405180610120016040528060008152602001606081526020016060815260200160608152602001600073ffffffffffffffffffffffffffffffffffffffff16815260200160008152602001600015158152602001600073ffffffffffffffffffffffffffffffffffffffff1681526020016000151581525090565b600080fd5b600080fd5b6000819050919050565b610fb181610f9e565b8114610fbc57600080fd5b50565b600081359050610fce81610fa8565b92915050565b600060208284031215610fea57610fe9610f94565b5b6000610ff884828501610fbf565b91505092915050565b61100a81610f9e565b82525050565b600081519050919050565b600082825260208201905092915050565b60005b8381101561104a57808201518184015260208101905061102f565b60008484015250505050565b6000601f19601f8301169050919050565b600061107282611010565b61107c818561101b565b935061108c81856020860161102c565b61109581611056565b840191505092915050565b600073ffffffffffffffffffffffffffffffffffffffff82169050919050565b60006110cb826110a0565b9050919050565b6110db816110c0565b82525050565b60008115159050919050565b6110f6816110e1565b82525050565b600061012082019050611112600083018c611001565b8181036020830152611124818b611067565b90508181036040830152611138818a611067565b9050818103606083015261114c8189611067565b905061115b60808301886110d2565b61116860a0830187611001565b61117560c08301866110ed565b61118260e08301856110d2565b6111906101008301846110ed565b9a9950505050505050505050565b6111a7816110c0565b81146111b257600080fd5b50565b6000813590506111c48161119e565b92915050565b6000602082840312156111e0576111df610f94565b5b60006111ee848285016111b5565b91505092915050565b600060208201905061120c60008301846110ed565b92915050565b61121b816110e1565b811461122657600080fd5b50565b60008135905061123881611212565b92915050565b6000806040838503121561125557611254610f94565b5b600061126385828601610fbf565b925050602061127485828601611229565b9150509250929050565b60006020820190506112936000830184611001565b92915050565b600080fd5b600080fd5b600080fd5b60008083601f8401126112be576112bd611299565b5b8235905067ffffffffffffffff8111156112db576112da61129e565b5b6020830191508360018202830111156112f7576112f66112a3565b5b9250929050565b6000806000806000806060878903121561131b5761131a610f94565b5b600087013567ffffffffffffffff81111561133957611338610f99565b5b61134589828a016112a8565b9650965050602087013567ffffffffffffffff81111561136857611367610f99565b5b61137489828a016112a8565b9450945050604087013567ffffffffffffffff81111561139757611396610f99565b5b6113a389828a016112a8565b92509250509295509295509295565b6113bb81610f9e565b82525050565b600082825260208201905092915050565b60006113dd82611010565b6113e781856113c1565b93506113f781856020860161102c565b61140081611056565b840191505092915050565b611414816110c0565b82525050565b611423816110e1565b82525050565b60006101208301600083015161144260008601826113b2565b506020830151848203602086015261145a82826113d2565b9150506040830151848203604086015261147482826113d2565b9150506060830151848203606086015261148e82826113d2565b91505060808301516114a3608086018261140b565b5060a08301516114b660a08601826113b2565b5060c08301516114c960c086018261141a565b5060e08301516114dc60e086018261140b565b506101008301516114f161010086018261141a565b508091505092915050565b600060208201905081810360008301526115168184611429565b905092915050565b600060208201905061153360008301846110d2565b92915050565b7f4e487b7100000000000000000000000000000000000000000000000000000000600052602260045260246000fd5b6000600282049050600182168061158057607f821691505b60208210810361159357611592611539565b5b50919050565b7f41646d696e206f6e6c7900000000000000000000000000000000000000000000600082015250565b60006115cf600a8361101b565b91506115da82611599565b602082019050919050565b600060208201905081810360008301526115fe816115c2565b9050919050565b7f5265766965776572206f6e6c7900000000000000000000000000000000000000600082015250565b600061163b600d8361101b565b915061164682611605565b602082019050919050565b6000602082019050818103600083015261166a8161162e565b9050919050565b7f45766964656e6365206e6f742061637469766500000000000000000000000000600082015250565b60006116a760138361101b565b91506116b282611671565b602082019050919050565b600060208201905081810360008301526116d68161169a565b9050919050565b7f496e76657374696761746f72206f6e6c79000000000000000000000000000000600082015250565b600061171360118361101b565b915061171e826116dd565b602082019050919050565b6000602082019050818103600083015261174281611706565b9050919050565b7f4e487b7100000000000000000000000000000000000000000000000000000000600052601160045260246000fd5b600061178382610f9e565b915061178e83610f9e565b92508282019050808211156117a6576117a5611749565b5b92915050565b7f4e487b7100000000000000000000000000000000000000000000000000000000600052604160045260246000fd5b60008190508160005260206000209050919050565b60006020601f8301049050919050565b600082821b905092915050565b60006008830261183d7fffffffffffffffffffffffffffffffffffffffffffffffffffffffffffffffff82611800565b6118478683611800565b95508019841693508086168417925050509392505050565b6000819050919050565b600061188461187f61187a84610f9e565b61185f565b610f9e565b9050919050565b6000819050919050565b61189e83611869565b6118b26118aa8261188b565b84845461180d565b825550505050565b600090565b6118c76118ba565b6118d2818484611895565b505050565b5b818110156118f6576118eb6000826118bf565b6001810190506118d8565b5050565b601f82111561193b5761190c816117db565b611915846117f0565b81016020851015611924578190505b611938611930856117f0565b8301826118d7565b50505b505050565b600082821c905092915050565b600061195e60001984600802611940565b1980831691505092915050565b6000611977838361194d565b9150826002028217905092915050565b61199082611010565b67ffffffffffffffff8111156119a9576119a86117ac565b5b6119b38254611568565b6119be8282856118fa565b600060209050601f8311600181146119f157600084156119df578287015190505b6119e9858261196b565b865550611a51565b601f1984166119ff866117db565b60005b82811015611a2757848901518255600182019150602085019450602081019050611a02565b86831015611a445784890151611a40601f89168261194d565b8355505b6001600288020188555050505b505050505050565b82818337600083830152505050565b6000611a74838561101b565b9350611a81838584611a59565b611a8a83611056565b840190509392505050565b60006020820190508181036000830152611ab0818486611a68565b9050939250505056fea2646970667358221220e568535530bcdf5f2da402faf42cbfe3cd937a520881ff1e291f1e2568e5dc8a64736f6c63430008140033",
  "linkReferences": {},
  "deployedLinkReferences": {}
}